:100000000C9439000C9456000C9456000C94560035
:100010000C9456000C9456000C9456000C94560008
:100020000C9456000C9456000C9456000C945600F8
:100030000C9456000C9456000C9456000C945600E8
:100040000C9456000C9456000C9456000C945600D8
:100050000C9456009005B605DC05020607062D0631
:10006000530679069A069A069A069A06A7067E0607
:10007000AE0611241FBECFE5D8E0DEBFCDBF11E034
:10008000A0E6B0E0EEE9F3E102C005900D92AA33DC
:10009000B107D9F721E0AAE3B1E001C01D92AC3469
:1000A000B207E1F70E946C050C94CD090C94000096
:1000B000662311F0C09A01C0C098C19882BB8FEF2F
:1000C00081BBC29A000000000000C2980895C09849
:1000D000C19A11BA90B3C29A00000000000011BA90
:1000E00090B3C29899239CF30E94580008959C01F4
:1000F00083E083BF83E808C082BF98B7916098BF50
:10010000A89508B600FEFDCF21503109A8F713BE0F
:100110000895B89AB99ABA9A80E190E00E9477005F
:1001200060E080E30E94580085E090E00E94770044
:1001300060E080E30E94580081E090E00E94770038
:1001400060E08CE30E94670060E08CE00E94670042
:1001500060E086E00E94670060E081E00E94670046
:100160000895CF93C62F98E2899FC00D112460E0B7
:1001700082E00E946700CC2331F060E084E10E94BD
:100180006700C150D1F7CF910895CF93DF93EC0171
:100190002196FC018081882331F061E00E94670094
:1001A00089918111FACFDF91CF910895CF93DF9399
:1001B00014BA15BA44B321E030E0F90102C0EE0FE1
:1001C000FF1F8A95E2F7CF014E2B44BB95B3809574
:1001D000892385BB84B3EB0124960C2E02C0220F29
:1001E000331F0A94E2F7922F9095892384BB85B33D
:1001F000282B25BB81E090E00E94770023B330E0FC
:1002000002C035952795CA95E2F781E090E020FF7E
:1002100002C080E090E0DF91CF9108950F931F938B
:10022000CF93DF9300E010E018C0BE01C8010E9428
:10023000D600009749F0000F111F000F111FC00FCB
:10024000D11FCE0101960CC02196C430D10569F7AB
:100250000F5F1F4F0430110519F0C0E0D0E0E5CF6B
:10026000DF91CF911F910F910895209162003091FD
:100270006300C90183709927892BA1F4C90164E641
:1002800070E00E94B506892B81F4C90160E971E034
:100290000E94B50621E030E0892B09F020E0822F92
:1002A000932F089580E090E0089581E090E0089514
:1002B0000F931F93CF93DF9380914A0190914B014D
:1002C0008C339105B4F401968C3391052CF4909302
:1002D0004B0180934A010DC010924B0110924A01CC
:1002E0008091480190914901019690934901809332
:1002F00048018091480190914901CC976CF010928F
:100300004901109248018091460190914701019660
:100310009093470180934601809146019091470157
:1003200048970CF464C01092470110924601C091A6
:100330006600D09167002196D0936700C093660055
:10034000CD31D105F4F100916400109165000230C7
:10035000110591F40E943501892B09F05EC081E0FE
:1003600090E0909367008093660083E090E0909324
:100370006500809364005CC0CF31D105A4F0C80152
:100380008D7F8430910511F0099769F481E090E048
:1003900090936700809366000F5F1F4F1093650076
:1003A000009364000EC0A09764F081E090E0909309
:1003B0006700809366000F5F1F4F109365000093E6
:1003C000640080916400909165000D978CF181E04C
:1003D00090E090936500809364008091620090911A
:1003E00063000196909363008093620021C0C091E6
:1003F0006600D0916700CD31D1050CF0A4CFE1CFDC
:1004000081E090E0909367008093660083E090E045
:1004100090936500809364000BC0CE31D10584F7C2
:1004200003C0C8018D7FB0CFCF31D105D4F7BBCF8A
:10043000DF91CF911F910F9108950F931F93CF9349
:10044000DF93CDB7DEB767970FB6F894DEBF0FBE68
:10045000CDBF1092450110924401109243011092B9
:100460004201109241011092400110923F011092FE
:100470003E0110923D0110923C0110923B011092FE
:100480003A01809163008F93809162008F938091F5
:1004900065008F93809164008F93809167008F93A4
:1004A000809166008F938EE690E09F938F938E01EC
:1004B0000F5F1F4F1F930F930E94E30660E080E0E1
:1004C0000E94B100C8010E94C5000FB6F894DEBFBB
:1004D0000FBECDBF8091600090916100892B11F11A
:1004E00080914B018F9380914A018F9380914901B4
:1004F0008F93809148018F93809147018F938091D2
:1005000046018F938DE790E09F938F93CE010C96D9
:100510009F938F930E94E3060FB6F894DEBF0FBE41
:10052000CDBF32C080914601909147018C3091053A
:100530003CF08C30910539F00C972BE630E005C08B
:1005400028E630E002C02BE630E03F932F93209165
:100550004B012F9320914A012F93209149012F9312
:10056000209148012F939F938F938CE890E09F9365
:100570008F93CE010C969F938F930E94E3060FB644
:10058000F894DEBF0FBECDBF60E081E00E94B100F5
:10059000CE010C960E94C50067960FB6F894DEBF98
:1005A0000FBECDBFDF91CF911F910F910895CF92D4
:1005B000DF92EF92FF920F931F93CF93DF93CDB70C
:1005C000DEB767970FB6F894DEBF0FBECDBF809140
:1005D00063008F93809162008F93809165008F9369
:1005E000809164008F93809167008F938091660063
:1005F0008F938EE690E09F938F938E010F5F1F4F36
:100600001F930F930E94E30660E080E00E94B10018
:10061000C8010E94C5008AEF90E00E9477000FB6E3
:10062000F894DEBF0FBECDBF80914401909145018B
:10063000892BC9F0809163008F93809162008F9322
:10064000809165008F93809164008F938EE990E094
:100650009F938F931F930F930E94E3060FB6F89416
:10066000DEBF0FBECDBF8091420190914301892B27
:10067000D9F0809163008F93809162008F93809175
:1006800067008F93809166008F938BEA90E09F9331
:100690008F93CE0101969F938F930E94E3060FB62E
:1006A000F894DEBF0FBECDBF809140019091410113
:1006B000892BD9F0809165008F93809164008F938E
:1006C000809167008F93809166008F9388EB90E014
:1006D0009F938F93CE0101969F938F930E94E30681
:1006E0000FB6F894DEBF0FBECDBF60E080E00E9481
:1006F000B100CE0101960E94C5008AEF90E00E94F1
:1007000077008091600090916100892B09F491C07D
:1007100080914B018F9380914A018F938091490181
:100720008F93809148018F93809147018F9380919F
:1007300046018F9387EC90E09F938F938E01045F27
:100740001F4F1F930F930E94E30660E081E00E9419
:10075000B100C8010E94C5008AEF90E00E947700B6
:100760000FB6F894DEBF0FBECDBF80913E019091D1
:100770003F01892BD1F080914B018F9380914A01E9
:100780008F93809149018F93809148018F9389EDD8
:1007900090E09F938F93C8019F930F930E94E3066D
:1007A0000FB6F894DEBF0FBECDBF80913C01909193
:1007B0003D01892BD9F080914B018F9380914A01A3
:1007C0008F93809147018F93809146018F9389EE9B
:1007D00090E09F938F93CE010C969F938F930E94EE
:1007E000E3060FB6F894DEBF0FBECDBF80913A018D
:1007F00090913B01892B09F4C8C0809149018F93E6
:10080000809148018F93809147018F938091460199
:100810008F9389EF90E09F938F93CE010C969F93D7
:100820008F930E94E3060FB6F894DEBF0FBECDBFD4
:10083000ACC000914601109147010C30110564F0E5
:100840000C30110581F00C5011090F2EFBE6EF2E34
:10085000F0E0FF2EF02D0DC00F2EF8E6EF2EF0E0A9
:10086000FF2EF02D06C00F2EFBE6EF2EF0E0FF2E40
:10087000F02DFF92EF9280914B018F9380914A016E
:100880008F93809149018F93809148018F931F939B
:100890000F938CE890E09F938F936E019CE0C90EBC
:1008A000D11CDF92CF920E94E30660E081E00E94BB
:1008B000B100C6010E94C5008AEF90E00E94770057
:1008C0000FB6F894DEBF0FBECDBF80913E01909170
:1008D0003F01892BE1F0FF92EF9280914B018F93C2
:1008E00080914A018F93809149018F9380914801B3
:1008F0008F9389E091E09F938F93C6019F93CF924E
:100900000E94E3060FB6F894DEBF0FBECDBF809104
:100910003C0190913D01892BC9F0FF92EF928091AB
:100920004B018F9380914A018F931F930F9389E11D
:1009300091E09F938F93CE010C969F938F930E948B
:10094000E3060FB6F894DEBF0FBECDBF80913A012B
:1009500090913B01892BC9F0FF92EF928091490160
:100960008F93809148018F931F930F9389E291E0B9
:100970009F938F93CE010C969F938F930E94E306D3
:100980000FB6F894DEBF0FBECDBF60E081E00E94DD
:10099000B100CE010C960E94C5008AEF90E00E9443
:1009A000770067960FB6F894DEBF0FBECDBFDF911C
:1009B000CF911F910F91FF90EF90DF90CF9008950E
:1009C0000F931F93CF93DF93809162009091630008
:1009D000992334F48AED97E090936300809362004A
:1009E00080916400909165000D9734F081E090E073
:1009F0009093650080936400809146019091470137
:100A0000489724F0109247011092460180914801C6
:100A100090914901CC9724F010924901109248011D
:100A200080914A0190914B01CC97C4F110924B01F7
:100A300010924A01C0916600D0916700CD31D10576
:100A40000CF445C00091640010916500023011055E
:100A500059F40E943501892B81F581E090E0909353
:100A600067008093660033C0CF31D10574F00D7FED
:100A70000430110519F00930110539F481E090E0D6
:100A8000909367008093660022C0A09704F181E0F4
:100A900090E0909367008093660019C0C091660053
:100AA000D0916700CD31D1056CF611C081E090E0A6
:100AB00090936700809366000AC0CE31D1051CF088
:100AC000F5CF0D7FD8CFCF31D105FCF2FACFDF9132
:100AD000CF911F910F9108958FE081BD0E948900F1
:100AE0000E941D0200E010E0E12CF12CCC24C39404
:100AF000D12C0F2EFAEDAF2EF7E0BF2EF02D0E9475
:100B00000E01EC0186E990E00E947700FE0131972A
:100B1000EF30F10508F00EC1E65DFF4F0C94C906F9
:100B20000115110509F015C1C0924401D09245018B
:100B3000E0924201F0924301E0924001F0924101C3
:100B4000E0923E01F0923F01E0923C01F0923D01C3
:100B5000E0923A01F0923B0180916600909167002B
:100B600001969093670080936600F8C00115110507
:100B700009F0EFC0E0924401F0924501C0924201B9
:100B8000D0924301E0924001F0924101E0923E0197
:100B9000F0923F01E0923C01F0923D01E0923A0177
:100BA000F0923B01809164009091650001969093D2
:100BB000650080936400D2C00115110509F0C9C019
:100BC000E0924401F0924501E0924201F09243012B
:100BD000C0924001D0924101E0923E01F0923F016B
:100BE000E0923C01F0923D01E0923A01F0923B012B
:100BF00080916200909163000196909363008093CE
:100C00006200ACC0C0926000D092610093C0011538
:100C1000110509F09EC0E0924401F0924501E09276
:100C20004201F0924301E0924001F0924101C092F2
:100C30003E01D0923F01E0923C01F0923D01E092F2
:100C40003A01F0923B018091460190914701019653
:100C5000909347018093460181C00115110509F069
:100C600078C0E0924401F0924501E0924201F09296
:100C70004301E0924001F0924101E0923E01F09286
:100C80003F01C0923C01D0923D01E0923A01F092C6
:100C90003B0180914801909149010196909349014F
:100CA000809348015BC00115110509F052C0E09224
:100CB0004401F0924501E0924201F0924301E0923A
:100CC0004001F0924101E0923E01F0923F01E0923A
:100CD0003C01F0923D01C0923A01D0923B018091DB
:100CE0004A0190914B01019690934B0180934A01E8
:100CF00035C0E0926000F09261001CC00115110542
:100D000041F5E0926600F0926700E0926400F09294
:100D10006500B0926300A0926200E0924601F092FA
:100D20004701E0924801F0924901E0924A01F092B5
:100D30004B0114C00E94E0040E94D7020115110566
:100D400009F4DDCE0E941D020E945801D8CE0C2D60
:100D50001D2D0E94E0040E94D702F4CF0E94E004FF
:100D60000E94D7020E2D1F2DCACE97FB072E16F418
:100D7000009407D077FD09D00E94CF0607FC05D06C
:100D80003EF4909581959F4F0895709561957F4FA2
:100D90000895EE0FFF1F0590F491E02D0994AA1B12
:100DA000BB1B51E107C0AA1FBB1FA617B70710F056
:100DB000A61BB70B881F991F5A95A9F78095909588
:100DC000BC01CD010895AEE0B0E0E9EEF6E00C9490
:100DD000A4090D891E8986E08C831A8309838FEF0D
:100DE0009FE79E838D83AE01475E5F4F6F89788D4D
:100DF000CE0101960E940507EF81F885E00FF11FF3
:100E000010822E96E4E00C94C009ABE0B0E0EBE079
:100E1000F7E00C9496096C017B018A01FC011782B2
:100E20001682838181FFCCC1CE0101963C01F6017F
:100E30009381F70193FD859193FF81917F01882331
:100E400009F4BAC1853239F493FD859193FF8191FC
:100E50007F01853229F4B60190E00E94FC08E7CFBB
:100E6000912C212C312CFFE1F315D8F08B3279F045
:100E700038F4803279F08332A1F4232D20611DC033
:100E80008D3261F0803369F4232D216016C0832DEB
:100E90008260382EE32DE4603E2E2AC0F32DF860E8
:100EA0001DC037FC2DC020ED280F2A3040F08E32B7
:100EB000B9F436FC81C1232D2064322E19C036FED0
:100EC00006C08AE0989E200D1124922E11C0EAE0FF
:100ED0002E9E200D1124222EF32DF0623F2E08C0ED
:100EE0008C3621F4832D8068382E02C0883641F478
:100EF000F70193FD859193FF81917F018111B3CF1C
:100F0000982F9F7D9554933028F40C5F1F4F9FE3DB
:100F100099830DC0833631F0833771F0833509F042
:100F200059C021C0F801808189830E5F1F4F88243A
:100F30008394912C530113C02801F2E04F0E511CF1
:100F4000F801A080B18036FE03C0692D70E002C0B8
:100F50006FEF7FEFC5010E94F1084C018201F32D74
:100F6000FF773F2E16C0280122E0420E511CF801E7
:100F7000A080B18036FE03C0692D70E002C06FEF23
:100F80007FEFC5010E94E6084C01F32DF0683F2E6B
:100F9000820133FC1BC0822D90E088169906B0F4C4
:100FA000B60180E290E00E94FC082A94F4CFF5019B
:100FB00037FC859137FE81915F01B60190E00E9478
:100FC000FC0821102A9421E0821A910881149104CE
:100FD00071F7E8C0843611F0893641F5F80137FE23
:100FE00007C060817181828193810C5F1F4F08C0AF
:100FF00060817181072E000C880B990B0E5F1F4FCB
:10100000F32DFF763F2E97FF09C090958095709540
:1010100061957F4F8F4F9F4FF0683F2E2AE030E061
:10102000A3010E943809882E861845C0853731F4FF
:10103000232D2F7EB22E2AE030E025C0932D997FFC
:10104000B92E8F36C1F018F4883579F0B5C08037E5
:1010500019F0883721F0B0C0E92FE061BE2EB4FE50
:101060000DC0FB2DF460BF2E09C034FE0AC0292F2D
:101070002660B22E06C028E030E005C020E130E056
:1010800002C020E132E0F801B7FE07C06081718143
:10109000828193810C5F1F4F06C06081718180E067
:1010A00090E00E5F1F4FA3010E943809882E86181A
:1010B000FB2DFF773F2E36FE0DC0232D2E7FA22E57
:1010C000891458F434FE0BC032FC09C0832D8E7E87
:1010D000A82E05C0B82CA32C03C0B82C01C0B92C75
:1010E000A4FE0FC0FE01E80DF11D8081803321F4C4
:1010F0009A2D997EA92E09C0A2FE06C0B394B3947E
:1011000004C08A2D867809F0B394A3FC11C0A0FE18
:1011100006C0B21488F4280C922C9B180EC0B2148E
:1011200060F4B60180E290E00E94FC08B394F7CF2F
:10113000B21418F42B1802C0982C212CA4FE10C055
:10114000B60180E390E00E94FC08A2FE17C0A1FC5B
:1011500003C088E790E002C088E590E0B6010CC0CB
:101160008A2D867859F0A1FE02C08BE201C080E290
:10117000A7FC8DE2B60190E00E94FC08891438F4C7
:10118000B60180E390E00E94FC089A94F7CF8A941D
:10119000F301E80DF11D8081B60190E00E94FC088A
:1011A0008110F5CF222009F442CEB60180E290E012
:1011B0000E94FC082A94F6CFF6018681978102C02E
:1011C0008FEF9FEF2B96E2E10C94B209FC010590A2
:1011D000615070400110D8F7809590958E0F9F1F39
:1011E0000895FC016150704001900110D8F780957E
:1011F00090958E0F9F1F08950F931F93CF93DF93AA
:10120000FB01238121FD03C08FEF9FEF2CC022FF44
:1012100016C046815781248135814217530744F413
:10122000A081B1819D012F5F3F4F318320838C933B
:10123000268137812F5F3F4F3783268314C08B0170
:10124000EC01FB010084F185E02D0995892BE1F685
:10125000D80116968D919C911797019617969C939D
:101260008E931697CE01DF91CF911F910F91089524
:10127000FA01AA27283051F1203181F1E8946F93C7
:101280006E7F6E5F7F4F8F4F9F4FAF4FB1E03ED06D
:10129000B4E03CD0670F781F891F9A1FA11D680F0B
:1012A000791F8A1F911DA11D6A0F711D811D911D3E
:1012B000A11D20D009F468943F912AE0269F1124B3
:1012C0003019305D3193DEF6CF010895462F477017
:1012D000405D4193B3E00FD0C9F7F6CF462F4F7072
:1012E000405D4A3318F0495D31FD4052419302D0D0
:1012F000A9F7EACFB4E0A695979587957795679576
:10130000BA95C9F700976105710508959B01AC0175
:101310000A2E06945795479537952795BA95C9F79C
:10132000620F731F841F951FA01D08952F923F9277
:101330004F925F926F927F928F929F92AF92BF92E5
:10134000CF92DF92EF92FF920F931F93CF93DF9391
:10135000CDB7DEB7CA1BDB0B0FB6F894DEBF0FBEEE
:10136000CDBF09942A88398848885F846E847D843B
:101370008C849B84AA84B984C884DF80EE80FD803D
:101380000C811B81AA81B981CE0FD11D0FB6F894B3
:0E139000DEBF0FBECDBFED010895F894FFCF74
:10139E000100DA0701000100414D00504D002530DB
:1013AE0032642F253032642F2530326400253032DE
:1013BE00643A253032643A25303264002530326486
:1013CE003A253032643A25303264202573002020CD
:1013DE002F253032642F2530326400253032642FB1
:1013EE0020202F2530326400253032642F253032F4
:1013FE00642F2020202000253032643A25303264BC
:10140E003A253032642020200020203A25303264E4
:10141E003A2530326420202000253032643A2020D4
:10142E003A2530326420202000253032643A2530AF
:10143E0032643A20202020200020203A25303264C9
:10144E003A2530326420257300253032643A20204C
:10145E003A2530326420257300253032643A253027
:0A146E0032643A20202025730000AC
:00000001FF
