S011000050726F6A65637420332E73726563E9
S11300000C942A000C9447000C9447000C9447006D
S11300100C9447000C9447000C9447000C94470040
S11300200C9447000C9447000C9447000C94470030
S11300300C9447000C9447000C9447000C94470020
S11300400C9447000C9447000C9447000C94470010
S11300500C94470011241FBECFE5D8E0DEBFCDBF0E
S113006010E0A0E6B0E0E8ECFAE002C005900D92E2
S1130070AA39B107D9F721E0AAE9B0E001C01D927D
S1130080A239B207E1F70E94F0030C9462050C94C4
S11300900000662311F0C09A01C0C098C19882BBC9
S11300A08FEF81BBC29A000000000000C29808953F
S11300B0C098C19A11BA90B3C29A0000000000001F
S11300C011BA90B3C29899239CF30E9449000895F1
S11300D09C0183E083BF83E808C082BF98B7916026
S11300E098BFA89508B600FEFDCF21503109A8F7A6
S11300F013BE0895B89AB99ABA9A80E190E00E9422
S1130100680060E080E30E94490085E090E00E947E
S1130110680060E080E30E94490081E090E00E9472
S1130120680060E08CE30E94580060E08CE00E946C
S1130130580060E086E00E94580060E081E00E9480
S11301405800089560E081E00E9458000895CF931C
S1130150C62F98E2899FC00D112460E082E00E94BE
S11301605800CC2331F060E084E10E945800C15073
S1130170D1F7CF910895CF93DF93EC012196FC0141
S11301808081882331F061E00E94580089918111B7
S1130190FACFDF91CF910895CF93DF9314BA15BAB4
S11301A044B321E030E0F90102C0EE0FFF1F8A954D
S11301B0E2F7CF014E2B44BB95B38095892385BBD1
S11301C084B3EB0124960C2E02C0220F331F0A9431
S11301D0E2F7922F9095892384BB85B3282B25BB06
S11301E081E090E00E94680023B330E002C03595BE
S11301F02795CA95E2F781E090E020FF02C080E0F5
S113020090E0DF91CF9108950F931F93CF93DF93E5
S113021000E010E018C0BE01C8010E94CC000097A5
S113022049F0000F111F000F111FC00FD11FCE0185
S113023001960CC02196C430D10569F70F5F1F4F9A
S11302400430110519F0C0E0D0E0E5CFDF91CF9183
S11302501F910F910895BC0182E083BF80E197E272
S11302600E944E05769567959BEF08C092BF88B7AC
S1130270816088BFA89508B600FEFDCF6150710962
S1130280A8F713BE0895EF92FF920F931F93CF9395
S1130290DF93689F7001699FF00C789FF00C112424
S11302A01E141F047CF48C01C0E0D0E0C49AC80181
S11302B00E942B01C498C8010E942B012196EC16C0
S11302C0FD06A1F7DF91CF911F910F91FF90EF9061
S11302D008952F923F924F925F926F927F928F92E6
S11302E09F92AF92BF92CF92DF92EF92FF920F93C1
S11302F01F93CF93DF93082F192F6230710509F0F4
S113030074C0C0E9D0E00F2EF5E22F2E312CF02D71
S113031073C00E9404018430910539F0883091053E
S113032079F081309105E1F007C0512C412CF12C7A
S11303300F2EFFE3CF2EF02D8C30910521F106C056
S1130340512C412CF12C6894CC24C6F8409711F51B
S1130350712C612CD12C0F2EFEE3EF2EF02D1AC040
S1130360512C412C6894FF24F7F80F2EFFE3CF2E75
S1130370F02D712C612C6894DD24D7F80F2EFEE348
S1130380EF2EF02D07C0712C612CD12C0F2EFFE322
S1130390EF2EF02D6A817B8180E090E00E9453046F
S11303A0252D342D4F2D5C2D0E94B9040E94240468
S11303B04B015C016881798180E090E00E945304E4
S11303C0272D362D4D2D5E2D0E94B9040E94240444
S11303D0DC01CB01B4010E9443010F5F1F4F24963F
S11303E0021513050CF495CF2FC0C0E6D0E00F2EF4
S11303F0F9E12F2E312CF02D0E94A20060E080E064
S11304000E94A70080E790E00E94BB0060E081E0CA
S11304100E94A700CE010E94BB00C02FD12F712CD7
S1130420612C6894DD24D7F80F2EFEE3EF2EF02D17
S1130430512C412C6894FF24F7F80F2EFFE3CF2EA4
S1130440F02D00E010E065CFDF91CF911F910F9167
S1130450FF90EF90DF90CF90BF90AF909F908F90E0
S11304607F906F905F904F903F902F9008958F9260
S11304709F92AF92BF92CF92DF92EF92FF920F932F
S11304801F93CF93DF93EEE2F1E0A2E6B0E0B183F5
S1130490A08302E010E013830283B583A48317834F
S11304A006834EE650E05187408784E090E09387CE
S11304B08287B587A4879787868723E830E0318BC6
S11304C0208B938B828B6BE770E0758B648BC8E019
S11304D0D0E0D78BC68BB18FA08F138F028FB58FCF
S11304E0A48F178F068F51A340A393A382A3B5A310
S11304F0A4A397A386A30F2EF3E9EF2EF12CF02DDE
S1130500F1A6E0A693A782A735A724A7D7A7C6A7D5
S1130510B1ABA0AB13AB02ABB5ABA4AB17AB06ABA3
S1130520A4ECB0E0B1AFA0AF93AF82AFA5EAB0E066
S1130530B5AFA4AF97AF86AF30936F0120936E0130
S113054090937101809370017093730160937201B1
S113055090937501809374015093770140937601D1
S11305609093790180937801EFEAF0E0F0937B01B6
S1130570E0937A0110937D0100937C01F0937F0155
S1130580E0937E011093810100938001B093830175
S1130590A093820190938501809384013093870115
S11305A0209386019093890180938801F0928B01B6
S11305B0E0928A0190938D0180938C0130938F0196
S11305C020938E01D0939101C0939001EAE9F0E069
S11305D0B183A083938382830F2EFCE9CF2ED12C89
S11305E0F02DD582C48297838683B187A0879387B1
S11305F08287D586C48697878687B18BA08B938B99
S1130600828B758B648B978B868BF18EE08E938FA8
S1130610828F358F248F978F868F51A340A393A306
S113062082A397A386A30F2EF1E4AF2EB12CF02D55
S1130630B5A2A4A202E510E011A700A793A782A780
S113064055A744A797A786A771AB60ABD3ABC2AB42
S113065015AA14AA97AB86AB11AF00AF93AF82AFC4
S11306600F2EF8E68F2E912CF02D95AE84AE97AF19
S113067086AF7093DB006093DA009093DD00809383
S1130680DC003093DF002093DE00D093E100C093C0
S1130690E000B093E300A093E2009093E500809320
S11306A0E400D092E700C092E6009093E9008093C2
S11306B0E800B093EB00A093EA009093ED008093E0
S11306C0EC00D092EF00C092EE009093F100809382
S11306D0F000B093F300A093F2009093F5008093A0
S11306E0F4007093F7006093F6009093F900809300
S11306F0F800F092FB00E092FA009093FD008093E2
S1130700FC003093FF002093FE009093010180933E
S113071000015093030140930201D0930501C0935B
S1130720040110920701109206019093090180932D
S11307300801B0920B01A0920A0190930D018093DD
S11307400C0110930F0100930E01909311018093FB
S1130750100150931301409312019093150180935B
S113076014017093170160931601D0931901C0937B
S1130770180110921B0110921A0190931D0180938D
S11307801C0110931F0100931E019093210180937B
S1130790200130932301209322019093250180931B
S11307A0240170932701609326019093290180937B
S11307B0280150932B0140932A018CE090E0909300
S11307C02D0180932C01DF91CF911F910F91FF9008
S11307D0EF90DF90CF90BF90AF909F908F9008954F
S11307E08FE081BD0E947A000E943702BC9A0E9469
S11307F0A20060E080E00E94A7008DE790E00E94E4
S1130800BB0060E081E00E94A7008EE890E00E94B7
S1130810BB000E940401EC0184E690E00E946800A1
S1130820C130D10519F0229741F0F3CF61E070E0B7
S11308308EE291E00E946901ECCF62E070E08AE907
S113084090E00E946901E5CF0E94980488F09F57C8
S113085098F0B92F9927B751B0F0E1F0660F771FE0
S1130860881F991F1AF0BA95C9F714C0B13091F0D6
S11308700E94B204B1E008950C94B204672F782F5B
S11308808827B85F39F0B93FCCF38695779567959B
S1130890B395D9F73EF490958095709561957F4F07
S11308A08F4F9F4F0895E89409C097FB3EF49095AD
S11308B08095709561957F4F8F4F9F4F9923A9F035
S11308C0F92F96E9BB279395F695879577956795C4
S11308D0B795F111F8CFFAF4BB0F11F460FF1BC008
S11308E06F5F7F4F8F4F9F4F16C0882311F096E99B
S11308F011C0772321F09EE8872F762F05C0662349
S113090071F096E8862F70E060E02AF09A95660F01
S1130910771F881FDAF7880F9695879597F90895BA
S113092057FD9058440F551F59F05F3F71F047959C
S1130930880F97FB991F61F09F3F79F08795089581
S1130940121613061406551FF2CF4695F1DF08C0A0
S1130950161617061806991FF1CF869571056105BD
S113096008940895E894BB2766277727CB0197F965
S113097008950E94CC040C943D050E942F0538F084
S11309800E94360520F0952311F00C9426050C9452
S11309902C0511240C94B3040E94900470F3959FC9
S11309A0C1F3950F50E0551F629FF001729FBB2762
S11309B0F00DB11D639FAA27F00DB11DAA1F649FFE
S11309C06627B00DA11D661F829F2227B00DA11DB1
S11309D0621F739FB00DA11D621F839FA00D611D37
S11309E0221F749F3327A00D611D231F849F600D58
S11309F0211D822F762F6A2F11249F5750409AF081
S1130A00F1F088234AF0EE0FFF1FBB1F661F771F0C
S1130A10881F91505040A9F79E3F510580F00C94D7
S1130A2026050C94B3045F3FE4F3983ED4F3869513
S1130A3077956795B795F795E7959F5FC1F7FE2B77
S1130A40880F911D9695879597F9089597F99F6753
S1130A5080E870E060E008959FEF80EC0895002442
S1130A600A941616170618060906089500240A940F
S1130A7012161306140605060895092E0394000C95
S1130A8011F4882352F0BB0F40F4BF2B11F460FF24
S1130A9004C06F5F7F4F8F4F9F4F0895AA1BBB1BEE
S1130AA051E107C0AA1FBB1FA617B70710F0A61B6A
S1130AB0B70B881F991F5A95A9F780959095BC018B
S10B0AC0CD010895F894FFCF65
S1130AC848617070792042697274686461792100A0
S1130AD84E6F7720506C6179696E673A00313A48F5
S1130AE86170707920426972746864617900323A7D
S10D0AF846757220456C69736500B1
S9030000FC
