:100000000C9438000C9455000C9455000C94550039
:100010000C9455000C9455000C9455000C9455000C
:100020000C9455000C9455000C9455000C945500FC
:100030000C9455000C9455000C9455000C945500EC
:100040000C9455000C9455000C9455000C945500DC
:100050000C9455006001780192017302AF01CB014D
:10006000EA01730209022A0248027302730269025A
:1000700011241FBECFE5D8E0DEBFCDBF11E0A0E662
:10008000B0E0E2E0F2E102C005900D92AC36B107BB
:10009000D9F721E0ACE6B1E001C01D92A83AB20761
:1000A000E1F70E94F9040C94FF080C940000662309
:1000B00011F0C09A01C0C098C19882BB8FEF81BB7C
:1000C000C29A000000000000C2980895C098C19A2A
:1000D00011BA90B3C29A00000000000011BA90B3A8
:1000E000C29899239CF30E94570008959C0183E0D5
:1000F00083BF83E808C082BF98B7916098BFA89576
:1001000008B600FEFDCF21503109A8F713BE0895AF
:10011000B89AB99ABA9A80E190E00E94760060E0BD
:1001200080E30E94570085E090E00E94760060E046
:1001300080E30E94570081E090E00E94760060E03A
:100140008CE30E94660060E08CE00E94660060E044
:1001500086E00E94660060E081E00E9466000895EB
:1001600060E081E00E9466000895CF93C62F98E278
:10017000899FC00D112460E082E00E946600CC23BC
:1001800031F060E084E10E946600C150D1F7CF9168
:100190000895CF93DF93EC012196FC0180818823A1
:1001A00031F061E00E94660089918111FACFDF9100
:1001B000CF910895CF93DF9314BA15BA44B321E0D9
:1001C00030E0F90102C0EE0FFF1F8A95E2F7CF0180
:1001D0004E2B44BB95B38095892385BB84B3EB013B
:1001E00024960C2E02C0220F331F0A94E2F7922F9E
:1001F0009095892384BB85B3282B25BB81E090E0B3
:100200000E94760023B330E002C035952795CA9549
:10021000E2F781E090E020FF02C080E090E0DF9113
:10022000CF9108950F931F93CF93DF9300E010E0D9
:1002300018C0BE01C8010E94DA00009749F0000F03
:10024000111F000F111FC00FD11FCE0101960CC04E
:100250002196C430D10569F70F5F1F4F0430110597
:1002600019F0C0E0D0E0E5CFDF91CF911F910F9161
:100270000895EF92FF920F931F93CF93DF93CDB723
:10028000DEB728970FB6F894DEBF0FBECDBF88E06B
:10029000E0E6F0E0DE01119601900D928A95E1F71B
:1002A0000FEF1FEFE12CF12C0E94120101978E300D
:1002B000910508F018C1865D9F4FFC010C940F0654
:1002C0000F5F1F4FF801EE0FFF1F81E090E08C0FD2
:1002D0009D1FE80FF91F80819181E80EF91E602FA4
:1002E00081E00E94B5008EE690E00E94C900FBC04C
:1002F0000F5F1F4FF801EE0FFF1F81E090E08C0FA2
:100300009D1FE80FF91F80819181880F991FE80ECA
:10031000F91E602F81E00E94B5008EE690E00E94F9
:10032000C900E1C00F5F1F4FF801EE0FFF1F81E012
:1003300090E08C0F9D1FE80FF91F808191819C0137
:10034000220F331F820F931FE80EF91E602F81E0EA
:100350000E94B5008EE690E00E94C900C4C00F5F05
:100360001F4FF801EE0FFF1F81E090E08C0F9D1FE3
:10037000E80FF91F80819181880F991F880F991FBD
:10038000E80EF91E602F81E00E94B5008EE690E035
:100390000E94C900A8C00F5F1F4FF801EE0FFF1F9A
:1003A00081E090E08C0F9D1FE80FF91F8081918103
:1003B0009C01220F331F220F331F820F931FE80E61
:1003C000F91E602F81E00E94B5008EE690E00E9449
:1003D000C90089C00F5F1F4FF801EE0FFF1F81E0BA
:1003E00090E08C0F9D1FE80FF91F808191819C0187
:1003F000220F331F820F931F880F991FE80EF91EDB
:10040000602F81E00E94B5008EE690E00E94C90056
:100410006AC00F5F1F4FF801EE0FFF1F81E090E0F1
:100420008C0F9D1FE80FF91F20813181C901880FB2
:10043000991F880F991F880F991F821B930BE80E35
:10044000F91E602F81E00E94B5008EE690E00E94C8
:10045000C90049C00F5F1F4FF801EE0FFF1F81E079
:1004600090E08C0F9D1FE80FF91F80819181880F0C
:10047000991F880F991F880F991FE80EF91E602F8A
:1004800081E00E94B5008EE690E00E94C9002BC07A
:100490000F5F1F4FF801EE0FFF1F81E090E08C0F00
:1004A0009D1FE80FF91F808191819C01220F331F4E
:1004B000220F331F220F331F820F931FE80EF91EE6
:1004C000602F81E00E94B5008EE690E00E94C90096
:1004D0000AC00F5F1F4F602F81E00E94B5008EE6BB
:1004E00090E00E94C9008CE291E00E947600033007
:1004F00011050CF4D9CEC70128960FB6F894DEBFCB
:100500000FBECDBFDF91CF911F910F91FF90EF9064
:1005100008950E9412018230910551F01CF4019758
:1005200081F0F7CF8330910531F0059739F0F1CFA5
:1005300084E690E0089584EF91E0089588EE93E0DA
:10054000089582E390E008956F927F928F929F9238
:10055000AF92BF92CF92DF92EF92FF920F931F93D1
:10056000CF93DF93CDB7DEB762970FB6F894DEBFB7
:100570000FBECDBF5C010F2EF0E7CF2EF0E0DF2ED7
:10058000F02DAE014F5F5F4F7A010F2EFAE76F2E0D
:10059000F0E07F2EF02D4E015FE0850E911C0E9451
:1005A000B000E0917001F0917101CF01880F991FA7
:1005B000E80FF91FEE0FFF1FEA0DFB1D83818F93DC
:1005C00082818F93DF92CF92FF92EF920E94150665
:1005D00060E080E00E94B500C7010E94C90060E0B1
:1005E00081E00E94B5008DE790E00E94C9000E9462
:1005F00012018C018CE291E00E9476000F900F9026
:100600000F900F900F900F900230110509F44DC01C
:1006100024F40130110551F0C2CF0430110509F462
:1006200083C00E30110509F4C2C0B9CF0E94B000DA
:1006300060E080E00E94B5008EE890E00E94C90072
:1006400060E081E00E94B5008EE990E00E94C90060
:100650000E9489022091700130917101F901EE0F21
:10066000FF1FE20FF31FEE0FFF1FEA0DFB1D22819C
:100670003381A901481B590BCA0199237CF40E94BC
:10068000B00060E080E00E94B5008FEA90E00E9438
:10069000C90084EC99E00E94760002C05383428333
:1006A00084EF91E00E9476007ACF0E94B00060E073
:1006B00080E00E94B5008EE890E00E94C90060E0F2
:1006C00081E00E94B5008EE990E00E94C9000E947E
:1006D00089022091700130917101F901EE0FFF1F25
:1006E000E20FF31FEE0FFF1FEA0DFB1D2281338186
:1006F000820F931F803157E295077CF00E94B00073
:1007000060E080E00E94B50080EC90E00E94C900AB
:1007100084EC99E00E94760002C09383828384EF88
:1007200091E00E9476003BCF0E94B00060E080E044
:100730000E94B50080ED90E00E94C9000E9439013E
:1007400020917001309171018901000F111F020F7A
:10075000131F000F111F0A0D1B1DF80191838083C9
:100760000E94B00060E080E00E94B5008FED90E054
:100770000E94C900F80181818F9380818F937F92BD
:100780006F929F928F920E94150660E081E00E9416
:10079000B500C4010E94C90080ED97E00E94760078
:1007A0000F900F900F900F900F900F90F8CE81E068
:1007B00090E0909373018093720162960FB6F89463
:1007C000DEBF0FBECDBFDF91CF911F910F91FF9084
:1007D000EF90DF90CF90BF90AF909F908F907F90E1
:1007E0006F900895BC0182E083BF80E197E20E9490
:1007F000FB05769567959BEF08C092BF88B781602F
:1008000088BFA89508B600FEFDCF61507109A8F712
:1008100013BE0895EF92FF920F931F93CF93DF9330
:10082000689F7001699FF00C789FF00C11241E14D2
:100830001F047CF48C01C0E0D0E0C49AC8010E947F
:10084000F203C498C8010E94F2032196EC16FD063B
:10085000A1F7DF91CF911F910F91FF90EF90089535
:100860000F931F93CF93DF93EC018C01085D1F4F13
:100870006A817B81888199810E940A042496C0172D
:10088000D107B1F781E090E0DF91CF911F910F91F7
:100890000895D89A84E690E00E947600D89884E67D
:1008A00090E00E947600D89A84E690E00E9476005C
:1008B000D89884E690E00E94760084E791E00E9458
:1008C0003004892BA1F0D89A84E690E00E9476004B
:1008D000D89884E690E00E947600D89A84E690E06A
:1008E0000E947600D89884E690E00E9476000895F1
:1008F0000F931F93CF93DF93EC010E94B000809180
:100900007001909171019C01220F331F820F931F80
:10091000880F991FC80FD91F0C811D810115110562
:1009200079F560E080E00E94B5008FEE90E00E94D3
:10093000C9000E943901288139812817390789F4B3
:100940000E94B00060E080E00E94B5008AEF90E075
:100950000E94C90084EC99E00E94760001E010E05A
:1009600011C00E94B00060E080E00E94B5008AE003
:1009700091E00E94C9000E9449040E94490402C0FB
:1009800000E010E0C801DF91CF911F910F91089511
:10099000E4E7F1E042E650E05183408382E090E0FA
:1009A0009383828327E530E035832483978386838E
:1009B00051874087938782873587248797878687E3
:1009C000518B408B938B828B358B248B978B868BB3
:1009D000518F408F938F828F358F248F978F868F83
:1009E00051A340A393A382A335A324A397A386A3D3
:1009F00008958FE081BD0E9488000E94C804ECE940
:100A0000F1E082ED94E09183808388E893E1938321
:100A10008283178216828FE097E2918780871092F7
:100A2000730110927201BC9AD09A0E94B00060E0EB
:100A300080E00E94B50085E191E00E94C90060E07D
:100A400081E00E94B50080E291E00E94C90084EC40
:100A500099E00E94760001E010E00E94B00060E0A2
:100A600080E00E94B5008AE291E00E94C90060E047
:100A700081E00E94B5008BE391E00E94C900809163
:100A8000720190917301892B09F0A2C00E9412019A
:100A9000EC018CE291E00E947600C230D105E9F1D0
:100AA0001CF4219749F0D9CFCC30D10509F466C0A8
:100AB000609709F478C0D1CF109271011092700143
:100AC0008CE991E00E947804892B11F58CE991E082
:100AD0000E947804892BB9F40E94B00060E080E0A5
:100AE0000E94B5008CE491E00E94C9008CED95E075
:100AF0000E9476001093A1010093A001109373014E
:100B000000937201AACF8CE991E00E94A402A5CFC4
:100B10008CE991E00E94A402A0CF10937101009390
:100B200070018CE991E00E947804892B11F58CE921
:100B300091E00E947804892BB9F40E94B00060E033
:100B400080E00E94B5008CE491E00E94C90084EC32
:100B500099E00E9476001093A7010093A6011093DC
:100B600073010093720179CF8CE991E00E94A40295
:100B700074CF8CE991E00E94A4026FCF80916E0146
:100B800090916F01019690936F0180936E0104978D
:100B900009F063CF1092A1011092A00110926F0191
:100BA00010926E015ACF80916C0190916D01019667
:100BB00090936D0180936C01049709F04ECF1092D1
:100BC000A7011092A60110926D0110926C0145CF01
:100BD0000E94B00060E080E00E94B5008CE591E0EA
:100BE0000E94C90084EC99E00E9476001092730183
:100BF0001092720132CFAA1BBB1B51E107C0AA1F82
:100C0000BB1FA617B70710F0A61BB70B881F991FAD
:100C10005A95A9F780959095BC01CD010895EE0FE6
:100C2000FF1F0590F491E02D0994AEE0B0E0EBE1F8
:100C3000F6E00C94D6080D891E8986E08C831A8311
:100C400009838FEF9FE79E838D83AE01475E5F4FE1
:100C50006F89788DCE0101960E943706EF81F88565
:100C6000E00FF11F10822E96E4E00C94F208ABE046
:100C7000B0E0EDE3F6E00C94C8086C017B018A015A
:100C8000FC0117821682838181FFCCC1CE010196BF
:100C90003C01F6019381F70193FD859193FF8191CA
:100CA0007F01882309F4BAC1853239F493FD859117
:100CB00093FF81917F01853229F4B60190E00E9473
:100CC0002E08E7CF912C212C312CFFE1F315D8F021
:100CD0008B3279F038F4803279F08332A1F4232D0D
:100CE00020611DC08D3261F0803369F4232D2160B5
:100CF00016C0832D8260382EE32DE4603E2E2AC07C
:100D0000F32DF8601DC037FC2DC020ED280F2A30D0
:100D100040F08E32B9F436FC81C1232D2064322E8E
:100D200019C036FE06C08AE0989E200D1124922E2E
:100D300011C0EAE02E9E200D1124222EF32DF06228
:100D40003F2E08C08C3621F4832D8068382E02C0D7
:100D5000883641F4F70193FD859193FF81917F01DE
:100D60008111B3CF982F9F7D9554933028F40C5F59
:100D70001F4F9FE399830DC0833631F0833771F0A5
:100D8000833509F059C021C0F801808189830E5F45
:100D90001F4F88248394912C530113C02801F2E043
:100DA0004F0E511CF801A080B18036FE03C0692DA2
:100DB00070E002C06FEF7FEFC5010E9423084C0175
:100DC0008201F32DFF773F2E16C0280122E0420E4C
:100DD000511CF801A080B18036FE03C0692D70E07F
:100DE00002C06FEF7FEFC5010E9418084C01F32D80
:100DF000F0683F2E820133FC1BC0822D90E08816E4
:100E00009906B0F4B60180E290E00E942E082A9480
:100E1000F4CFF50137FC859137FE81915F01B60172
:100E200090E00E942E0821102A9421E0821A910855
:100E30008114910471F7E8C0843611F0893641F5C8
:100E4000F80137FE07C060817181828193810C5F58
:100E50001F4F08C060817181072E000C880B990B11
:100E60000E5F1F4FF32DFF763F2E97FF09C0909521
:100E70008095709561957F4F8F4F9F4FF0683F2E03
:100E80002AE030E0A3010E946A08882E861845C037
:100E9000853731F4232D2F7EB22E2AE030E025C095
:100EA000932D997FB92E8F36C1F018F4883579F0DB
:100EB000B5C0803719F0883721F0B0C0E92FE06164
:100EC000BE2EB4FE0DC0FB2DF460BF2E09C034FE53
:100ED0000AC0292F2660B22E06C028E030E005C0E7
:100EE00020E130E002C020E132E0F801B7FE07C0A7
:100EF00060817181828193810C5F1F4F06C0608188
:100F0000718180E090E00E5F1F4FA3010E946A088C
:100F1000882E8618FB2DFF773F2E36FE0DC0232D21
:100F20002E7FA22E891458F434FE0BC032FC09C067
:100F3000832D8E7EA82E05C0B82CA32C03C0B82C00
:100F400001C0B92CA4FE0FC0FE01E80DF11D808187
:100F5000803321F49A2D997EA92E09C0A2FE06C0E5
:100F6000B394B39404C08A2D867809F0B394A3FC9B
:100F700011C0A0FE06C0B21488F4280C922C9B1855
:100F80000EC0B21460F4B60180E290E00E942E0818
:100F9000B394F7CFB21418F42B1802C0982C212C5C
:100FA000A4FE10C0B60180E390E00E942E08A2FECD
:100FB00017C0A1FC03C088E790E002C088E590E07C
:100FC000B6010CC08A2D867859F0A1FE02C08BE2D2
:100FD00001C080E2A7FC8DE2B60190E00E942E08DD
:100FE000891438F4B60180E390E00E942E089A94A8
:100FF000F7CF8A94F301E80DF11D8081B60190E0EE
:101000000E942E088110F5CF222009F442CEB601AD
:1010100080E290E00E942E082A94F6CFF6018681A5
:10102000978102C08FEF9FEF2B96E2E10C94E408CA
:10103000FC010590615070400110D8F780959095A3
:101040008E0F9F1F0895FC016150704001900110A8
:10105000D8F7809590958E0F9F1F08950F931F933B
:10106000CF93DF93FB01238121FD03C08FEF9FEF1F
:101070002CC022FF16C0468157812481358142173A
:10108000530744F4A081B1819D012F5F3F4F31830D
:1010900020838C93268137812F5F3F4F37832683B0
:1010A00014C08B01EC01FB010084F185E02D099552
:1010B000892BE1F6D80116968D919C911797019690
:1010C00017969C938E931697CE01DF91CF911F9127
:1010D0000F910895FA01AA27283051F1203181F1AA
:1010E000E8946F936E7F6E5F7F4F8F4F9F4FAF4F30
:1010F000B1E03ED0B4E03CD0670F781F891F9A1F43
:10110000A11D680F791F8A1F911DA11D6A0F711DF6
:10111000811D911DA11D20D009F468943F912AE002
:10112000269F11243019305D3193DEF6CF010895EA
:10113000462F4770405D4193B3E00FD0C9F7F6CF1B
:10114000462F4F70405D4A3318F0495D31FD4052E3
:10115000419302D0A9F7EACFB4E0A6959795879579
:1011600077956795BA95C9F7009761057105089558
:101170009B01AC010A2E0694579547953795279504
:10118000BA95C9F7620F731F841F951FA01D08959C
:101190002F923F924F925F926F927F928F929F9287
:1011A000AF92BF92CF92DF92EF92FF920F931F9375
:1011B000CF93DF93CDB7DEB7CA1BDB0B0FB6F89426
:1011C000DEBF0FBECDBF09942A88398848885F8466
:1011D0006E847D848C849B84AA84B984C884DF80D7
:1011E000EE80FD800C811B81AA81B981CE0FD11DBB
:1011F0000FB6F894DEBF0FBECDBFED010895F89491
:02120000FFCF1E
:10120200E80364000A00010064000A0001002A00E9
:1012120042616C616E63653A2024256400313A575D
:10122200746864727720323A44706F737400313A92
:10123200202435302020323A202431303000333A15
:10124200202435303020343A202431303030004EE2
:101252006F7420456E6F7567682046756E64730003
:101262004578636565646564204C696D6974210025
:10127200456E746572206E65772050494E3A005073
:10128200494E206368616E67656420746F3A004559
:101292006E7465722050494E3A0050494E20417595
:1012A20074686F72697A6564210057726F6E672085
:1012B20050494E210057656C636F6D6520746F0055
:1012C20042616E6B2041544D2100313A4D696E618D
:1012D2002773204163636F756E7400323A4A61630B
:1012E200652773204163636F756E7400594F5520F3
:1012F200474F54204C4F434B454421005468616E84
:0C1302006B20796F7521204279652E0068
:00000001FF
