:100000000C94AB000C94C8000C94C8000C94C8006D
:100010000C94C8000C94C8000C94C8000C94C80040
:100020000C94C8000C94C8000C94C8000C94C80030
:100030000C94C8000C94C8000C94C8000C94C80020
:100040000C94C8000C94C8000C94C8000C94C80010
:100050000C94C8006E616E00696E660000407A10F4
:10006000F35A00A0724E18090010A5D4E80000E869
:100070007648170000E40B54020000CA9A3B0000C7
:1000800000E1F505000080969800000040420F0056
:100090000000A08601000000102700000000E80317
:1000A000000000006400000000000A0000000000E2
:1000B0000100000000002C76D888DC674F0823DFA1
:1000C000C1DFAE59E1B1B796E5E3E453C63AE65174
:1000D000997696E8E6C28426EB898C9B62ED407C9B
:1000E0006FFCEFBC9C9F40F2BAA56FA5F490055A37
:1000F0002AF75C936B6CF9676DC11BFCE0E40D475C
:10010000FEF520E6B500D0ED902E0300943577057E
:100110000080841E080000204E0A000000C80C3336
:100120003333330F986E12831141EF8D2114893BC5
:10013000E65516CFFEE6DB18D1844B381BF77C1D45
:10014000901DA4BBE424203284725E228100C9F198
:1001500024ECA1E53D2711241FBECFE5D8E0DEBF8A
:10016000CDBF10E0A0E6B0E0E6EEF2E102C00590FF
:100170000D92A63CB107D9F720E0A6ECB0E001C093
:100180001D92A83DB207E1F70E94EB020C947109A1
:100190000C940000662311F0C09A01C0C098C19869
:1001A00082BB8FEF81BBC29A000000000000C298A2
:1001B0000895C098C19A11BA90B3C29A0000000085
:1001C000000011BA90B3C29899239CF30E94CA0010
:1001D00008959C0183E083BF83E808C082BF98B77D
:1001E000916098BFA89508B600FEFDCF2150310957
:1001F000A8F713BE0895B89AB99ABA9A80E190E028
:100200000E94E90060E080E30E94CA0085E090E07F
:100210000E94E90060E080E30E94CA0081E090E073
:100220000E94E90060E08CE30E94D90060E08CE06D
:100230000E94D90060E086E00E94D90060E081E081
:100240000E94D900089560E081E00E94D9000895DD
:10025000CF93C62F98E2899FC00D112460E082E001
:100260000E94D900CC2331F060E084E10E94D900E3
:10027000C150D1F7CF910895CF93DF93EC01219630
:10028000FC018081882331F061E00E94D9008991CE
:100290008111FACFDF91CF910895CF93DF9314BAF4
:1002A00015BA44B321E030E0F90102C0EE0FFF1FA0
:1002B0008A95E2F7CF014E2B44BB95B380958923F5
:1002C00085BB84B3EB0124960C2E02C0220F331F92
:1002D0000A94E2F7922F9095892384BB85B3282B4B
:1002E00025BB81E090E00E94E90023B330E002C02A
:1002F00035952795CA95E2F781E090E020FF02C08E
:1003000080E090E0DF91CF9108950F931F93CF93FA
:10031000DF9300E010E018C0BE01C8010E944D014B
:10032000009749F0000F111F000F111FC00FD11FC0
:10033000CE0101960CC02196C430D10569F70F5F3C
:100340001F4F0430110519F0C0E0D0E0E5CFDF9178
:10035000CF911F910F910895389839983A983B980A
:100360003C98379A369A3699FECF84B195B1089564
:100370000E94230160E080E00E94280180E690E076
:100380000E943C0160E081E00E94280180E790E04B
:100390000E943C0108953F924F925F926F927F922C
:1003A0008F929F92AF92BF92CF92DF92EF92FF9285
:1003B0000F931F93CF93DF93CDB7DEB7A4970FB6FC
:1003C000F894DEBF0FBECDBF2091D4003091D50090
:1003D000A4EFB1E00E9476070F2E88248A94F3E000
:1003E0009F2EA12CB12CF02DA50194010E94540741
:1003F00029013A016091CC007091CD008091CE002E
:100400009091CF002091D0003091D1004091D20046
:100410005091D3000E945407A4EFB1E00E948507D9
:10042000A50194010E94540729A33AA34BA35CA3FE
:100430002091C6003091C700A4EFB1E00E9476077A
:10044000A50194010E94540769017A012091CA0014
:100450003091CB00A4EFB1E00E947607A501940192
:100460000E94540749015A0149A15AA1569547953E
:10047000569547959A01ABE7B4E10E9476079695A9
:1004800087950F2EF4E63F2EF02D389E9001399E71
:10049000300D112489A19AA1821B930B9F938F93F6
:1004A0009A010E947607969587959F938F93A20154
:1004B00056954795569547959A010E9476079695C9
:1004C0008795389E9001399E300D1124421A530AA7
:1004D0005F924F929A010E947607969587959F9317
:1004E0008F9380E890E09F938F938E010F5F1F4F53
:1004F0001F930F930E94F108A401569547955695B6
:1005000047959A01ABE7B4E10E94760796958795E7
:10051000389E9001399E300D1124821A930A9F92C1
:100520008F929A010E947607969587959F938F9355
:10053000A60156954795569547959A010E947607CC
:1005400096958795389E9001399E300D1124C21AD8
:10055000D30ADF92CF929A010E94760796958795EB
:100560009F938F9386E990E09F938F937E0181E123
:10057000E80EF11CFF92EF920E94F1080E94230105
:1005800060E080E00E942801C8010E943C0160E018
:1005900081E00E942801C7010E943C010FB6F89437
:1005A000DEBF0FBECDBFA4960FB6F894DEBF0FBE60
:1005B000CDBFDF91CF911F910F91FF90EF90DF9012
:1005C000CF90BF90AF909F908F907F906F905F90F3
:1005D0004F903F9008958FE081BD0E94FB001092E4
:1005E000D7001092D6001092C9001092C800109245
:1005F000D5001092D4001092CB001092CA008FEF59
:1006000093E09093C7008093C6001092D0001092A0
:10061000D1001092D2001092D3001092CC00109210
:10062000CD001092CE001092CF0060E080E00E94DA
:1006300028018CEA90E00E943C0160E081E00E9489
:1006400028018DEB90E00E943C013F983E9AC1E06A
:10065000D0E00FEF13E00E9485018130910519F081
:100660000E9751F012C0D093D700C093D6001092CD
:10067000C9001092C80010C0D093C900C093C80030
:100680001092D7001092D60073C08091D60090913E
:10069000D700892B09F465C084EF91E00E94E9003E
:1006A0000E94AC01C090D000D090D100E090D20068
:1006B000F090D3002FEFC21AD20AE20AF20AC092D7
:1006C000D000D092D100E092D200F092D3004091BD
:1006D000CC005091CD006091CE007091CF00480FBA
:1006E000591F611D711D4093CC005093CD00609344
:1006F000CE007093CF009093D5008093D4002091CA
:10070000C6003091C7008217930720F49093C7006A
:100710008093C6002091CA003091CB00281739077A
:1007200020F49093CB008093CA00CF20CE20CD2020
:10073000C09441F41092D0001092D1001092D200D7
:100740001092D3004F3F5F4F6F4F7F4F41F4109295
:10075000CC001092CD001092CE001092CF000E94DB
:10076000CB018091C8009091C900892B09F473CF07
:100770001092D5001092D4001092CB001092CA00B3
:100780001093C7000093C6001092D0001092D100C1
:100790001092D2001092D3001092CC001092CD0093
:1007A0001092CE001092CF000E94B80154CFA0E169
:1007B000B0E0EDEDF3E00C9490077C011B016A01C1
:1007C000FC0117821682838181FF44C39E012F5F43
:1007D0003F4F3901F7019381F10193FD859193FF1B
:1007E00081911F01882309F431C3853239F493FDC7
:1007F000859193FF81911F01853239F4B70190E013
:100800000E94B50856016501E5CF10E0512C912CEE
:10081000FFE1F915D8F08B3279F038F4803279F0B5
:100820008332A1F4F92DF0612EC08D3261F0803356
:1008300069F4292D21602DC0392D3260932E892D28
:100840008460982E2AC0E92DE86015C097FC2DC061
:1008500020ED280F2A3088F496FE06C03AE0139F58
:10086000200D1124122F19C08AE0589E200D11244A
:10087000522EE92DE0629E2E10C08E3231F496FC8D
:10088000E5C2F92DF0649F2E08C08C3621F4292D85
:100890002068922E02C0883641F4F10193FD8591C3
:1008A00093FF81911F018111B3CF9BEB980F933080
:1008B00020F4992D9061805E07C09BE9980F9330DA
:1008C00008F066C1992D9F7E96FF16E09F73992EC2
:1008D000853619F49064992E08C0863621F4392F94
:1008E0003068932E02C01111115097FE07C01C33BF
:1008F00050F444244394410E27E00BC0183038F0E4
:1009000027E017E005C027E09CE3492E02C0212F15
:10091000412C560184E0A80EB11CF6016081718162
:1009200082819381042DA3010E94C7076C01F98184
:10093000FC87F0FF02C0F3FF06C091FC06C092FEE8
:1009400006C000E205C00DE203C00BE201C000E0FA
:100950008C858C7019F001115AC29BC297FE10C091
:100960004C0CFC85F4FF04C08A81813309F44A945D
:10097000141474F528E0241578F588E0482E2CC06E
:1009800096FC2AC0812F90E08C159D059CF03CEFD1
:10099000C3163FEFD30674F0892D8068982E0AC0E5
:1009A000E2E0F0E0EC0FFD1FE10FF11D80818033EC
:1009B00019F411501111F4CF97FE0EC04424439442
:1009C000410E812F90E0C816D9062CF41C1904C0E2
:1009D0004424439401C010E097FE06C01C141D047B
:1009E00034F4C601019605C085E090E002C081E0C4
:1009F00090E001110196112331F0212F30E02F5F9B
:100A00003F4F820F931F252D30E08217930714F478
:100A1000581A01C0512C892D897049F4552039F09C
:100A2000B70180E290E00E94B5085A94F7CF002306
:100A300029F0B701802F90E00E94B50893FC09C00F
:100A4000552039F0B70180E390E00E94B5085A9430
:100A5000F7CF97FE4CC04601D7FE02C0812C912CE7
:100A6000C60188199909F301E80FF91FFE87ED8780
:100A7000960124193109388B2F87012F10E0119529
:100A8000019511093FEF8316930629F4B7018EE211
:100A900090E00E94B508C814D9044CF08F8598895D
:100AA0008815990524F4ED85FE85818101C080E3D8
:100AB000F1E08F1A91082D853E852F5F3F4F3E87CD
:100AC0002D87801691062CF0B70190E00E94B508A2
:100AD000D9CFC814D90441F49A81963320F49533C0
:100AE00019F43C8534FF81E3B70190E04EC08A8160
:100AF000813319F09C859F7E9C87B70190E00E940E
:100B0000B508111105C094FC18C085E690E017C027
:100B1000B7018EE290E00E94B5081E5F82E001E01E
:100B2000080FF301E80FF11D8081B70190E00E94EA
:100B3000B508802F0113F3CFE6CF85E490E0B7012D
:100B40000E94B508D7FC06C0C114D10441F4EC855D
:100B5000E4FF05C0D194C194D1088DE201C08BE2BD
:100B6000B70190E00E94B50880E32AE0C216D104E4
:100B70002CF08F5FFAE0CF1AD108F7CFB70190E0E1
:100B80000E94B508B701C601C0960E94B50854C1BD
:100B9000833631F0833779F0833509F056C020C0B1
:100BA000560132E0A30EB11CF6018081898301E079
:100BB00010E0630112C05601F2E0AF0EB11CF60165
:100BC000C080D18096FE03C0612F70E002C06FEF3D
:100BD0007FEFC6010E94AA088C01F92DFF7714C08F
:100BE000560122E0A20EB11CF601C080D18096FE13
:100BF00003C0612F70E002C06FEF7FEFC6010E945B
:100C00009F088C01F92DF0689F2EF3FD1AC0852DE9
:100C100090E008171907A8F4B70180E290E00E945D
:100C2000B5085A94F4CFF60197FC859197FE81910F
:100C30006F01B70190E00E94B50851105A9401501D
:100C400011090115110579F7F7C0843611F08936BD
:100C500061F5560197FE09C024E0A20EB11CF60111
:100C600060817181828193810AC0F2E0AF0EB11C74
:100C7000F60160817181072E000C880B990BF92D0C
:100C8000FF769F2E97FF09C090958095709561958E
:100C90007F4F8F4F9F4FF0689F2E2AE030E0A301D7
:100CA0000E941309C82EC6183FC0092D853721F4AC
:100CB0000F7E2AE030E01DC0097F8F3691F018F4D6
:100CC000883559F0C3C0803719F0883711F0BEC09D
:100CD000006104FF09C0046007C094FE08C00660FC
:100CE00006C028E030E005C020E130E002C020E18D
:100CF00032E0560107FF09C084E0A80EB11CF601DE
:100D0000608171818281938108C0F2E0AF0EB11CD5
:100D1000F6016081718180E090E0A3010E941309D7
:100D2000C82EC6180F77902E96FE0BC0092D0E7F89
:100D3000C11650F494FE0AC092FC08C0092D0E7E24
:100D400005C0DC2C092D03C0DC2C01C0D12E04FF12
:100D50000DC0FE01EC0DF11D8081803311F4097E80
:100D600009C002FF06C0D394D39404C0802F8678B4
:100D700009F0D39403FD11C000FF06C01C2DD5144B
:100D800080F4150D1D190DC0D51458F4B70180E27B
:100D900090E00E94B508D394F7CFD51410F45D18F5
:100DA00001C0512C04FF10C0B70180E390E00E9405
:100DB000B50802FF17C001FD03C088E790E002C03C
:100DC00088E590E0B7010CC0802F867859F001FFCC
:100DD00002C08BE201C080E207FD8DE2B70190E026
:100DE0000E94B508C11638F4B70180E390E00E9474
:100DF000B5081150F7CFCA94F301EC0DF11D8081B5
:100E0000B70190E00E94B508C110F5CF15C0F4E01D
:100E1000F51560F584E0581A93FE1FC0011127C034
:100E20002C8523FF2AC004E510E0392D3071932E64
:100E3000F8018491811124C0552009F4E4CCB70154
:100E400080E290E00E94B5085A94F6CFF7018681BF
:100E5000978126C08FEF9FEF23C0B70180E290E01B
:100E60000E94B5085A945110F8CFD8CF512CB70131
:100E7000802F90E00E94B508D3CF08E510E0D5CFD1
:100E800091108052B70190E00E94B5080F5F1F4F8C
:100E9000CFCF23E0251510F483E0BDCF512CC0CF78
:100EA0006096E2E10C94AC07A1E21A2EAA1BBB1BD0
:100EB000FD010DC0AA1FBB1FEE1FFF1FA217B30726
:100EC000E407F50720F0A21BB30BE40BF50B661F3C
:100ED000771F881F991F1A9469F760957095809500
:100EE00090959B01AC01BD01CF010895A29FB00177
:100EF000B39FC001A39F700D811D1124911DB29F4E
:100F0000700D811D1124911D08950E947607A59FE3
:100F1000900DB49F900DA49F800D911D11240895F4
:100F20002F923F924F925F926F927F928F929F92F9
:100F3000AF92BF92CF92DF92EF92FF920F931F93E7
:100F4000CF93DF93CDB7DEB7CA1BDB0B0FB6F89498
:100F5000DEBF0FBECDBF09942A88398848885F84D8
:100F60006E847D848C849B84AA84B984C884DF8049
:100F7000EE80FD800C811B81AA81B981CE0FD11D2D
:100F80000FB6F894DEBF0FBECDBFED010895283037
:100F900008F027E03327DA01990F311D87FD9160B2
:100FA00000966105710539F432602E5F3D9330E3A0
:100FB0002A95E1F708959F3F30F08038710561056B
:100FC00009F03C5F3C5F3D93913008F08068911DD3
:100FD000DF93CF931F930F93FF92EF92192F987F78
:100FE0009695E92F96959695E90FFF27EA54FF4FBE
:100FF00099273327EE24FF24A701E70105900894E1
:10100000079428F4360FE71EF81E491F511D660F7E
:10101000771F881F991F0694A1F70590079428F45D
:10102000E70EF81E491F561FC11D770F881F991F15
:10103000661F0694A1F70590079428F4F80E491F3F
:10104000561FC71FD11D880F991F661F771F069453
:10105000A1F70590079420F4490F561FC71FD81F0A
:10106000990F661F771F881F0694A9F78491109522
:10107000177041F0D695C79557954795F794E79423
:101080001A95C1F7ECE5F0E068941590159135914B
:101090006591959105907FE27395E118F10A430BF4
:1010A000560BC90BD009C0F7E10CF11E431F561FA8
:1010B000C91FD01D7EF4703311F48A95E6CFE894F1
:1010C000015030F0080F0AF40027021708F4202F0F
:1010D0002395022F7A3328F079E37D932A95E9F757
:1010E00010C07D932A9589F6069497956795379554
:1010F00017951794E118F10A430B560BC90BD00949
:1011000098F023957E9173957A3308F070E37C9381
:101110002013B8F77E9170617D9330F0839571E371
:101120007D9370E32A95E1F71124EF90FF900F91E2
:101130001F91CF91DF91992787FD90950895FC012C
:101140000590615070400110D8F7809590958E0FF2
:101150009F1F0895FC016150704001900110D8F765
:10116000809590958E0F9F1F08950F931F93CF9397
:10117000DF93FB01238121FD03C08FEF9FEF2CC084
:1011800022FF16C0468157812481358142175307BB
:1011900044F4A081B1819D012F5F3F4F31832083B3
:1011A0008C93268137812F5F3F4F3783268314C06E
:1011B0008B01EC01FB010084F185E02D0995892B61
:1011C000E1F6D80116968D919C9117970196179686
:1011D0009C938E931697CE01DF91CF911F910F9123
:1011E0000895AEE0B0E0E7EFF8E00C949E070D89BB
:1011F0001E8986E08C831A8309838FEF9FE79E8385
:101200008D83AE01475E5F4F6F89788DCE01019669
:101210000E94D703EF81F885E00FF11F10822E9610
:10122000E4E00C94BA07FA01AA27283051F12031E2
:1012300081F1E8946F936E7F6E5F7F4F8F4F9F4F6A
:10124000AF4FB1E03ED0B4E03CD0670F781F891FAC
:101250009A1FA11D680F791F8A1F911DA11D6A0F7A
:10126000711D811D911DA11D20D009F468943F912D
:101270002AE0269F11243019305D3193DEF6CF012C
:101280000895462F4770405D4193B3E00FD0C9F7F2
:10129000F6CF462F4F70405D4A3318F0495D31FD5F
:1012A0004052419302D0A9F7EACFB4E0A6959795B2
:1012B000879577956795BA95C9F700976105710588
:1012C00008959B01AC010A2E0694579547953795D2
:1012D0002795BA95C9F7620F731F841F951FA01D2C
:0612E0000895F894FFCF11
:1012E60056743A2D2D2D2D2041763A2D2D2D2D007B
:1012F6004D6E3A2D2D2D2D204D783A2D2D2D2D006C
:1013060056743A25642E253032642041763A256497
:101316002E25303264004D6E3A25642E2530326417
:10132600204D783A25642E2530326400313A5374C4
:101336006172742053616D706C696E6700303A5249
:06134600657365740000F0
:00000001FF
